:03000000020E14D9
:0C0E1400787FE4F6D8FD758164020E5B67
:100D46005A00616C6578006B696C6F006C6F6C6142
:100D5600006E6F7661007065727500706F656D006C
:100D66006E657874006E657773007269736B0073D5
:100D76006F6C6F00736F64610070756D70006163F6
:100D860069640062616E6B0062616C690065617323
:100D9600790064616D6E00666C657800746F6761DA
:100DA6000066616D65006472756D00666973680042
:100DB6007872617900646F6F72007A65726F006392
:100DC60075626100617869730066726F67006361BE
:100DD600766500737461720074696E61004D656DAD
:100DE6006F72792047616D650047657420526561B1
:100DF60064790053636F72653A200020202020201A
:0E0E060000486967682053636F72653A2000E8
:100EA000C102C101012F0001640002220001023EC3
:100EB00000000B2438383838383838383838000BC8
:100EC000307A7A7A7A7A7A7A7A7A7A0002620000CA
:100ED00002600000023C0000C100012100013B0053
:100EE00020204030313233343536373839414243AF
:100EF0004445464748494A4B4C4D4E4F505152533A
:030F000054550045
:100F3E00E4F5A0C282C280C2817F38FE120FC512B4
:100F4E000F967F067E00120FC5120F967F0C7E0045
:100F5E00120FC5120F96120FC1120F967F807E00D0
:030F6E00020FC5AA
:040F96007F047E0056
:100F9A00E4FDFCC3ED9FEC9E5015E4FBFA0BBB008D
:0F0FAA00010ABA01F8BB7EF50DBD00010C80E411
:010FB9002215
:0B0FBA007FE87E03120F9A7F017E008B
:100FC500C280C281D2828FA07F0A7E00120F9AC290
:020FD500822276
:03102400F8E6FFEC
:10102700D280C281D2828FA07F0A7E00120F9AC21D
:02103700822213
:100F71008B0C8A0D890EAB0CAA0DA90E12100B60F9
:100F810013050EE50E7002050D14F912100BFF1278
:050F9100102780E222A0
:10103900758921758DCC759850D2A9C28DD28ED261
:04104900ACD2AF2254
:100FF200E4FF20010512100B60F8C20112100B640D
:081002000170037F4622AF9943
:01100A0022C3
:0300230002104D7B
:10104D00309905C299D20232309804C298D2013239
:10080000E521601174302561F8E6B54011E52364F7
:1008100001452270097BFF7A0D7948020BD7E5214B
:100820006401601174302561F8E6B54111E5236477
:1008300001452270097BFF7A0D794D020BD7E52126
:100840006402601174302561F8E6B54211E5236455
:1008500001452270097BFF7A0D7952020BD7E52101
:100860006403601174302561F8E6B54311E5236433
:1008700001452270097BFF7A0D7957020BD7E521DC
:100880006404601174302561F8E6B54411E5236411
:1008900001452270097BFF7A0D795C020BD7E521B7
:1008A0006405601174302561F8E6B54511E52364EF
:1008B00001452270097BFF7A0D7961020BD7E52192
:1008C0006406601174302561F8E6B54611E52364CD
:1008D00001452270097BFF7A0D7966020BD7E5216D
:1008E0006407601174302561F8E6B54711E52364AB
:1008F00001452270097BFF7A0D796B020BD7E52148
:100900006408601174302561F8E6B54811E5236488
:1009100001452270097BFF7A0D7970020BD7E52122
:100920006409601174302561F8E6B54911E5236466
:1009300001452270097BFF7A0D7975020BD7E521FD
:10094000640A601174302561F8E6B54A11E5236444
:1009500001452270097BFF7A0D797A020BD7E521D8
:10096000640B601174302561F8E6B54B11E5236422
:1009700001452270097BFF7A0D797F020BD7E521B3
:10098000640C601174302561F8E6B54C11E5236400
:1009900001452270097BFF7A0D7984020BD7E5218E
:1009A000640D601174302561F8E6B54D11E52364DE
:1009B00001452270097BFF7A0D7989020BD7E52169
:1009C000640E601174302561F8E6B54E11E52364BC
:1009D00001452270097BFF7A0D798E020BD7E52144
:1009E000640F601174302561F8E6B54F11E523649A
:1009F00001452270097BFF7A0D7993020BD7E5211F
:100A00006410601174302561F8E6B55011E5236477
:100A100001452270097BFF7A0D7998020BD7E521F9
:100A20006411601174302561F8E6B55111E5236455
:100A300001452270097BFF7A0D799D020BD7E521D4
:100A40006412601174302561F8E6B55211E5236433
:100A500001452270097BFF7A0D79A2020BD7E521AF
:100A60006413601174302561F8E6B55311E5236411
:100A700001452270097BFF7A0D79A7020BD7E5218A
:100A80006414601174302561F8E6B55411E52364EF
:100A900001452270097BFF7A0D79AC020BD7E52165
:100AA0006415601174302561F8E6B55511E52364CD
:100AB00001452270097BFF7A0D79B1020BD7E52140
:100AC0006416601174302561F8E6B55611E52364AB
:100AD00001452270097BFF7A0D79B6020BD7E5211B
:100AE0006417601174302561F8E6B55711E5236489
:100AF00001452270097BFF7A0D79BB020BD7E521F6
:100B00006418601174302561F8E6B55811E5236466
:100B100001452270097BFF7A0D79C0020BD7E521D0
:100B20006419601174302561F8E6B55911E5236444
:100B300001452270097BFF7A0D79C5020BD7E521AB
:100B4000641A601174302561F8E6B55A10E5236423
:100B500001452270087BFF7A0D79CA807AE521640D
:100B60001B601174302561F8E6B55B10E523640164
:100B7000452270087BFF7A0D79CF805BE521641CEC
:100B8000601174302561F8E6B55C10E52364014519
:100B90002270087BFF7A0D79D4803CE521641D60CA
:100BA0001174302561F8E6B55D10E5236401452236
:100BB00070087BFF7A0D79D9801DE521641E6011D4
:100BC00074302561F8E6B55E11E5236401452270B5
:0B0BD000097BFF7A0D79DE120F712205
:06106900D20075210122F6
:100FD700E521C313F5215402C313FFA200E4336FC5
:0B0FE700C454F02521F52113920022D4
:100BDB00E4F508F509F50AF50B7F807E00120FC5C9
:100BEB007BFF7A0D79E3120F717FD07E07120FBE58
:100BFB00E4F522F523F562F5637F807E00120FC5C5
:100C0B00120FD712080074402521F8E6FF74302527
:100C1B0063F8A6077F20121027120FD7E52175F076
:100C2B000A84AFF0753E008F3F74402F121024746E
:100C3B0040253FF8E6FF74242563F8A607120FBA88
:100C4B000563E56370020562C3940AE562648094F0
:100C5B008040A6E4F562F5637F80FE120FC57BFF33
:100C6B007A0D79EF120F717FB87E0B120FBEE4F580
:100C7B0060F56185213B752122F522752301F56015
:100C8B00F5617F807E00120FC5120800D28CE4F54F
:100C9B0064FB7A007964120FF2753C008F3D74246B
:100CAB002561F8E6B53D0CE4B53C080509E509708E
:100CBB000205087FC07E00120FC5AF3D121027E45E
:100CCB00F52F120FBA0561E56170020560C3940A36
:100CDB00E5606480948040AAD3E50B9509E5086430
:100CEB0080F8E50A648098500685080A85090B7F11
:100CFB00807E00120FC57BFF7A0D79F9120F717B85
:100D0B00FF7A0E7901120F71744025091210247F9E
:100D1B00C07E00120FC57BFF7A0E7907120F71741C
:100D2B0040250BF8E6FF1210277FB87E0B120FBE83
:0B0D3B00853B21E4F508F509020BE4FC
:03000B00020F04DD
:100F0400C0E0C0D075D000C006C007052FAF2F7E4B
:100F140000EF645B7008758C72758A808013EF64CF
:100F24005C4E7007C28C7564018006758C00758AEE
:0A0F340000D007D006D0D0D0E03284
:0C105D00120F3E121039121069020BDB5A
:100E200002105DE493A3F8E493A34003F68001F27B
:100E300008DFF48029E493A3F85407240CC8C333D3
:100E4000C4540F4420C8834004F456800146F6DFA2
:100E5000E4800B0102040810204080900EA0E47E84
:100E6000019360BCA3FF543F30E509541FFEE49397
:100E7000A360010ECF54C025E060A840B8E493A35E
:100E8000FAE493A3F8E493A3C8C582C8CAC583CA89
:100E9000F0A3C8C582C8CAC583CADFE9DEE780BE41
:010F030000ED
:10100B00BB010689828A83E0225002E722BBFE02E3
:09101B00E32289828A83E4932216
:00000001FF
